{
  "_format": "hh-sol-artifact-1",
  "contractName": "Amazon",
  "sourceName": "contracts/Amazon.sol",
  "abi": [
    {
      "inputs": [],
      "stateMutability": "nonpayable",
      "type": "constructor"
    },
    {
      "anonymous": false,
      "inputs": [
        {
          "indexed": false,
          "internalType": "address",
          "name": "buyer",
          "type": "address"
        },
        {
          "indexed": false,
          "internalType": "uint256",
          "name": "orderId",
          "type": "uint256"
        },
        {
          "indexed": false,
          "internalType": "uint256",
          "name": "itemId",
          "type": "uint256"
        }
      ],
      "name": "Buy",
      "type": "event"
    },
    {
      "anonymous": false,
      "inputs": [
        {
          "indexed": false,
          "internalType": "string",
          "name": "name",
          "type": "string"
        },
        {
          "indexed": false,
          "internalType": "uint256",
          "name": "cost",
          "type": "uint256"
        },
        {
          "indexed": false,
          "internalType": "uint256",
          "name": "quantity",
          "type": "uint256"
        }
      ],
      "name": "List",
      "type": "event"
    },
    {
      "inputs": [
        {
          "internalType": "uint256",
          "name": "_id",
          "type": "uint256"
        },
        {
          "internalType": "address",
          "name": "_buyer",
          "type": "address"
        }
      ],
      "name": "buy",
      "outputs": [],
      "stateMutability": "payable",
      "type": "function"
    },
    {
      "inputs": [
        {
          "internalType": "uint256",
          "name": "",
          "type": "uint256"
        }
      ],
      "name": "items",
      "outputs": [
        {
          "internalType": "uint256",
          "name": "id",
          "type": "uint256"
        },
        {
          "internalType": "string",
          "name": "name",
          "type": "string"
        },
        {
          "internalType": "string",
          "name": "category",
          "type": "string"
        },
        {
          "internalType": "string",
          "name": "image",
          "type": "string"
        },
        {
          "internalType": "uint256",
          "name": "cost",
          "type": "uint256"
        },
        {
          "internalType": "uint256",
          "name": "rating",
          "type": "uint256"
        },
        {
          "internalType": "uint256",
          "name": "stock",
          "type": "uint256"
        }
      ],
      "stateMutability": "view",
      "type": "function"
    },
    {
      "inputs": [
        {
          "internalType": "uint256",
          "name": "_id",
          "type": "uint256"
        },
        {
          "internalType": "string",
          "name": "_name",
          "type": "string"
        },
        {
          "internalType": "string",
          "name": "_category",
          "type": "string"
        },
        {
          "internalType": "string",
          "name": "_image",
          "type": "string"
        },
        {
          "internalType": "uint256",
          "name": "_cost",
          "type": "uint256"
        },
        {
          "internalType": "uint256",
          "name": "_rating",
          "type": "uint256"
        },
        {
          "internalType": "uint256",
          "name": "_stock",
          "type": "uint256"
        }
      ],
      "name": "list",
      "outputs": [],
      "stateMutability": "nonpayable",
      "type": "function"
    },
    {
      "inputs": [
        {
          "internalType": "address",
          "name": "",
          "type": "address"
        }
      ],
      "name": "orderCount",
      "outputs": [
        {
          "internalType": "uint256",
          "name": "",
          "type": "uint256"
        }
      ],
      "stateMutability": "view",
      "type": "function"
    },
    {
      "inputs": [
        {
          "internalType": "address",
          "name": "",
          "type": "address"
        },
        {
          "internalType": "uint256",
          "name": "",
          "type": "uint256"
        }
      ],
      "name": "orders",
      "outputs": [
        {
          "internalType": "uint256",
          "name": "time",
          "type": "uint256"
        },
        {
          "components": [
            {
              "internalType": "uint256",
              "name": "id",
              "type": "uint256"
            },
            {
              "internalType": "string",
              "name": "name",
              "type": "string"
            },
            {
              "internalType": "string",
              "name": "category",
              "type": "string"
            },
            {
              "internalType": "string",
              "name": "image",
              "type": "string"
            },
            {
              "internalType": "uint256",
              "name": "cost",
              "type": "uint256"
            },
            {
              "internalType": "uint256",
              "name": "rating",
              "type": "uint256"
            },
            {
              "internalType": "uint256",
              "name": "stock",
              "type": "uint256"
            }
          ],
          "internalType": "struct Amazon.Item",
          "name": "item",
          "type": "tuple"
        }
      ],
      "stateMutability": "view",
      "type": "function"
    },
    {
      "inputs": [],
      "name": "owner",
      "outputs": [
        {
          "internalType": "address",
          "name": "",
          "type": "address"
        }
      ],
      "stateMutability": "view",
      "type": "function"
    },
    {
      "inputs": [],
      "name": "withdraw",
      "outputs": [],
      "stateMutability": "nonpayable",
      "type": "function"
    }
  ],
  "bytecode": "0x608060405234801561001057600080fd5b50336000806101000a81548173ffffffffffffffffffffffffffffffffffffffff021916908373ffffffffffffffffffffffffffffffffffffffff16021790555061159d806100606000396000f3fe6080604052600436106100705760003560e01c80637deb60251161004e5780637deb6025146101075780638da5cb5b14610123578063bfb231d21461014e578063eea8a7e81461019157610070565b80633ccfd60b14610075578063713d856b1461008c578063793b8c6d146100c9575b600080fd5b34801561008157600080fd5b5061008a6101ba565b005b34801561009857600080fd5b506100b360048036038101906100ae9190610dc0565b6102ac565b6040516100c09190610e06565b60405180910390f35b3480156100d557600080fd5b506100f060048036038101906100eb9190610e4d565b6102c4565b6040516100fe929190610fdf565b60405180910390f35b610121600480360381019061011c919061100f565b6104dd565b005b34801561012f57600080fd5b50610138610943565b604051610145919061105e565b60405180910390f35b34801561015a57600080fd5b5061017560048036038101906101709190611079565b610967565b60405161018897969594939291906110f0565b60405180910390f35b34801561019d57600080fd5b506101b860048036038101906101b391906112a9565b610b41565b005b60008054906101000a900473ffffffffffffffffffffffffffffffffffffffff1673ffffffffffffffffffffffffffffffffffffffff163373ffffffffffffffffffffffffffffffffffffffff161461021257600080fd5b60008060009054906101000a900473ffffffffffffffffffffffffffffffffffffffff1673ffffffffffffffffffffffffffffffffffffffff1647604051610259906113d0565b60006040518083038185875af1925050503d8060008114610296576040519150601f19603f3d011682016040523d82523d6000602084013e61029b565b606091505b50509050806102a957600080fd5b50565b60036020528060005260406000206000915090505481565b600260205281600052604060002060205280600052604060002060009150915050806000015490806001016040518060e00160405290816000820154815260200160018201805461031490611414565b80601f016020809104026020016040519081016040528092919081815260200182805461034090611414565b801561038d5780601f106103625761010080835404028352916020019161038d565b820191906000526020600020905b81548152906001019060200180831161037057829003601f168201915b505050505081526020016002820180546103a690611414565b80601f01602080910402602001604051908101604052809291908181526020018280546103d290611414565b801561041f5780601f106103f45761010080835404028352916020019161041f565b820191906000526020600020905b81548152906001019060200180831161040257829003601f168201915b5050505050815260200160038201805461043890611414565b80601f016020809104026020016040519081016040528092919081815260200182805461046490611414565b80156104b15780601f10610486576101008083540402835291602001916104b1565b820191906000526020600020905b81548152906001019060200180831161049457829003601f168201915b505050505081526020016004820154815260200160058201548152602001600682015481525050905082565b6000600160008481526020019081526020016000206040518060e00160405290816000820154815260200160018201805461051790611414565b80601f016020809104026020016040519081016040528092919081815260200182805461054390611414565b80156105905780601f1061056557610100808354040283529160200191610590565b820191906000526020600020905b81548152906001019060200180831161057357829003601f168201915b505050505081526020016002820180546105a990611414565b80601f01602080910402602001604051908101604052809291908181526020018280546105d590611414565b80156106225780601f106105f757610100808354040283529160200191610622565b820191906000526020600020905b81548152906001019060200180831161060557829003601f168201915b5050505050815260200160038201805461063b90611414565b80601f016020809104026020016040519081016040528092919081815260200182805461066790611414565b80156106b45780601f10610689576101008083540402835291602001916106b4565b820191906000526020600020905b81548152906001019060200180831161069757829003601f168201915b505050505081526020016004820154815260200160058201548152602001600682015481525050905080608001513410156106ee57600080fd5b60008160c00151116106ff57600080fd5b60006040518060400160405280428152602001838152509050600360008473ffffffffffffffffffffffffffffffffffffffff1673ffffffffffffffffffffffffffffffffffffffff168152602001908152602001600020600081548092919061076890611475565b919050555080600260008573ffffffffffffffffffffffffffffffffffffffff1673ffffffffffffffffffffffffffffffffffffffff1681526020019081526020016000206000600360008773ffffffffffffffffffffffffffffffffffffffff1673ffffffffffffffffffffffffffffffffffffffff16815260200190815260200160002054815260200190815260200160002060008201518160000155602082015181600101600082015181600001556020820151816001019080519060200190610836929190610cab565b506040820151816002019080519060200190610853929190610cab565b506060820151816003019080519060200190610870929190610cab565b506080820151816004015560a0820151816005015560c08201518160060155505090505060018260c001516108a591906114be565b60016000868152602001908152602001600020600601819055507f1cbc5ab135991bd2b6a4b034a04aa2aa086dac1371cb9b16b8b5e2ed6b036bed83600360008673ffffffffffffffffffffffffffffffffffffffff1673ffffffffffffffffffffffffffffffffffffffff168152602001908152602001600020548460000151604051610935939291906114f2565b60405180910390a150505050565b60008054906101000a900473ffffffffffffffffffffffffffffffffffffffff1681565b600160205280600052604060002060009150905080600001549080600101805461099090611414565b80601f01602080910402602001604051908101604052809291908181526020018280546109bc90611414565b8015610a095780601f106109de57610100808354040283529160200191610a09565b820191906000526020600020905b8154815290600101906020018083116109ec57829003601f168201915b505050505090806002018054610a1e90611414565b80601f0160208091040260200160405190810160405280929190818152602001828054610a4a90611414565b8015610a975780601f10610a6c57610100808354040283529160200191610a97565b820191906000526020600020905b815481529060010190602001808311610a7a57829003601f168201915b505050505090806003018054610aac90611414565b80601f0160208091040260200160405190810160405280929190818152602001828054610ad890611414565b8015610b255780601f10610afa57610100808354040283529160200191610b25565b820191906000526020600020905b815481529060010190602001808311610b0857829003601f168201915b5050505050908060040154908060050154908060060154905087565b60008054906101000a900473ffffffffffffffffffffffffffffffffffffffff1673ffffffffffffffffffffffffffffffffffffffff163373ffffffffffffffffffffffffffffffffffffffff1614610b9957600080fd5b60006040518060e0016040528089815260200188815260200187815260200186815260200185815260200184815260200183815250905080600160008a8152602001908152602001600020600082015181600001556020820151816001019080519060200190610c0a929190610cab565b506040820151816002019080519060200190610c27929190610cab565b506060820151816003019080519060200190610c44929190610cab565b506080820151816004015560a0820151816005015560c082015181600601559050507ffdbe2a012c10ec01592653978eaa09b5ca60b143a0e617505b2ebcbd911ec5b8878584604051610c9993929190611529565b60405180910390a15050505050505050565b828054610cb790611414565b90600052602060002090601f016020900481019282610cd95760008555610d20565b82601f10610cf257805160ff1916838001178555610d20565b82800160010185558215610d20579182015b82811115610d1f578251825591602001919060010190610d04565b5b509050610d2d9190610d31565b5090565b5b80821115610d4a576000816000905550600101610d32565b5090565b6000604051905090565b600080fd5b600080fd5b600073ffffffffffffffffffffffffffffffffffffffff82169050919050565b6000610d8d82610d62565b9050919050565b610d9d81610d82565b8114610da857600080fd5b50565b600081359050610dba81610d94565b92915050565b600060208284031215610dd657610dd5610d58565b5b6000610de484828501610dab565b91505092915050565b6000819050919050565b610e0081610ded565b82525050565b6000602082019050610e1b6000830184610df7565b92915050565b610e2a81610ded565b8114610e3557600080fd5b50565b600081359050610e4781610e21565b92915050565b60008060408385031215610e6457610e63610d58565b5b6000610e7285828601610dab565b9250506020610e8385828601610e38565b9150509250929050565b610e9681610ded565b82525050565b600081519050919050565b600082825260208201905092915050565b60005b83811015610ed6578082015181840152602081019050610ebb565b83811115610ee5576000848401525b50505050565b6000601f19601f8301169050919050565b6000610f0782610e9c565b610f118185610ea7565b9350610f21818560208601610eb8565b610f2a81610eeb565b840191505092915050565b600060e083016000830151610f4d6000860182610e8d565b5060208301518482036020860152610f658282610efc565b91505060408301518482036040860152610f7f8282610efc565b91505060608301518482036060860152610f998282610efc565b9150506080830151610fae6080860182610e8d565b5060a0830151610fc160a0860182610e8d565b5060c0830151610fd460c0860182610e8d565b508091505092915050565b6000604082019050610ff46000830185610df7565b81810360208301526110068184610f35565b90509392505050565b6000806040838503121561102657611025610d58565b5b600061103485828601610e38565b925050602061104585828601610dab565b9150509250929050565b61105881610d82565b82525050565b6000602082019050611073600083018461104f565b92915050565b60006020828403121561108f5761108e610d58565b5b600061109d84828501610e38565b91505092915050565b600082825260208201905092915050565b60006110c282610e9c565b6110cc81856110a6565b93506110dc818560208601610eb8565b6110e581610eeb565b840191505092915050565b600060e082019050611105600083018a610df7565b818103602083015261111781896110b7565b9050818103604083015261112b81886110b7565b9050818103606083015261113f81876110b7565b905061114e6080830186610df7565b61115b60a0830185610df7565b61116860c0830184610df7565b98975050505050505050565b600080fd5b600080fd5b7f4e487b7100000000000000000000000000000000000000000000000000000000600052604160045260246000fd5b6111b682610eeb565b810181811067ffffffffffffffff821117156111d5576111d461117e565b5b80604052505050565b60006111e8610d4e565b90506111f482826111ad565b919050565b600067ffffffffffffffff8211156112145761121361117e565b5b61121d82610eeb565b9050602081019050919050565b82818337600083830152505050565b600061124c611247846111f9565b6111de565b90508281526020810184848401111561126857611267611179565b5b61127384828561122a565b509392505050565b600082601f8301126112905761128f611174565b5b81356112a0848260208601611239565b91505092915050565b600080600080600080600060e0888a0312156112c8576112c7610d58565b5b60006112d68a828b01610e38565b975050602088013567ffffffffffffffff8111156112f7576112f6610d5d565b5b6113038a828b0161127b565b965050604088013567ffffffffffffffff81111561132457611323610d5d565b5b6113308a828b0161127b565b955050606088013567ffffffffffffffff81111561135157611350610d5d565b5b61135d8a828b0161127b565b945050608061136e8a828b01610e38565b93505060a061137f8a828b01610e38565b92505060c06113908a828b01610e38565b91505092959891949750929550565b600081905092915050565b50565b60006113ba60008361139f565b91506113c5826113aa565b600082019050919050565b60006113db826113ad565b9150819050919050565b7f4e487b7100000000000000000000000000000000000000000000000000000000600052602260045260246000fd5b6000600282049050600182168061142c57607f821691505b602082108114156114405761143f6113e5565b5b50919050565b7f4e487b7100000000000000000000000000000000000000000000000000000000600052601160045260246000fd5b600061148082610ded565b91507fffffffffffffffffffffffffffffffffffffffffffffffffffffffffffffffff8214156114b3576114b2611446565b5b600182019050919050565b60006114c982610ded565b91506114d483610ded565b9250828210156114e7576114e6611446565b5b828203905092915050565b6000606082019050611507600083018661104f565b6115146020830185610df7565b6115216040830184610df7565b949350505050565b6000606082019050818103600083015261154381866110b7565b90506115526020830185610df7565b61155f6040830184610df7565b94935050505056fea26469706673582212201d3c4fd9dd178fe68fee065ad6552c030b8c5b0417a7884c075b0dd95aa94e4c64736f6c63430008090033",
  "linkReferences": {},
  "deployedLinkReferences": {}
}